# blockchain-test-data

## Mainnet Transactions

BSV,BTC,BCH

```
0100000002acf17f885a83c7a221ab64fda59bce530b95a131a16eff3470a6cccac6b2d312000000006b483045022100a71b9fe6d94918b436e7b949f6c49407f25e4e39fc7fe20cf22e787def43cb5602200b52e999c0e75eaef28bd97609465ff41d7dad99e06b219997c3df452251e903012102e7d08484e6c4c26bd2a3aabab09c65bbdcb4a6bba0ee5cf7008ef19b9540f818ffffffff71d4a7c7fe372cb80d7170b96a8a2b8c5a0b0015f7877f50e6709fc78f1766ae010000006b483045022100c82137d106505ab32febf6ba3a607fe62cd4a4ab96fef67bf4e379405c40836302202cf6d85f4a0e811728870d649ceb47b24986599f0f09c252e9b62c94df6a2bb5012102e7d08484e6c4c26bd2a3aabab09c65bbdcb4a6bba0ee5cf7008ef19b9540f818ffffffff0200743ba40b0000001976a91429a158767437cd82ccf4bd3e34ecd16c267fc36388ace093a7ca000000001976a9140b31340661bb7a4165736ca2fc6509164b1dc96488ac00000000
```

```
{"txid":"85e72c0814597ec52d2d178b7125af0e3cfa07821912ca81bf4b1fbe4b4b70f2","hash":"85e72c0814597ec52d2d178b7125af0e3cfa07821912ca81bf4b1fbe4b4b70f2","version":1,"size":374,"vsize":374,"weight":1496,"locktime":0,"vin":[{"txid":"12d3b2c6cacca67034ff6ea131a1950b53ce9ba5fd64ab21a2c7835a887ff1ac","vout":0,"scriptSig":{"asm":"3045022100a71b9fe6d94918b436e7b949f6c49407f25e4e39fc7fe20cf22e787def43cb5602200b52e999c0e75eaef28bd97609465ff41d7dad99e06b219997c3df452251e903[ALL] 02e7d08484e6c4c26bd2a3aabab09c65bbdcb4a6bba0ee5cf7008ef19b9540f818","hex":"483045022100a71b9fe6d94918b436e7b949f6c49407f25e4e39fc7fe20cf22e787def43cb5602200b52e999c0e75eaef28bd97609465ff41d7dad99e06b219997c3df452251e903012102e7d08484e6c4c26bd2a3aabab09c65bbdcb4a6bba0ee5cf7008ef19b9540f818"},"sequence":4294967295},{"txid":"ae66178fc79f70e6507f87f715000b5a8c2b8a6ab970710db82c37fec7a7d471","vout":1,"scriptSig":{"asm":"3045022100c82137d106505ab32febf6ba3a607fe62cd4a4ab96fef67bf4e379405c40836302202cf6d85f4a0e811728870d649ceb47b24986599f0f09c252e9b62c94df6a2bb5[ALL] 02e7d08484e6c4c26bd2a3aabab09c65bbdcb4a6bba0ee5cf7008ef19b9540f818","hex":"483045022100c82137d106505ab32febf6ba3a607fe62cd4a4ab96fef67bf4e379405c40836302202cf6d85f4a0e811728870d649ceb47b24986599f0f09c252e9b62c94df6a2bb5012102e7d08484e6c4c26bd2a3aabab09c65bbdcb4a6bba0ee5cf7008ef19b9540f818"},"sequence":4294967295}],"vout":[{"value":500,"n":0,"scriptPubKey":{"asm":"OP_DUP OP_HASH160 29a158767437cd82ccf4bd3e34ecd16c267fc363 OP_EQUALVERIFY OP_CHECKSIG","hex":"76a91429a158767437cd82ccf4bd3e34ecd16c267fc36388ac","reqSigs":1,"type":"pubkeyhash","addresses":["14o7zMMUJkG6De24r3JkJ6USgChq7iWF86"]}},{"value":33.9998,"n":1,"scriptPubKey":{"asm":"OP_DUP OP_HASH160 0b31340661bb7a4165736ca2fc6509164b1dc964 OP_EQUALVERIFY OP_CHECKSIG","hex":"76a9140b31340661bb7a4165736ca2fc6509164b1dc96488ac","reqSigs":1,"type":"pubkeyhash","addresses":["122BNoyhmuUt9G9mdEm3mN4nb73c1UgNKt"]}}]}
```

BSV::metanet

```
0100000003468a6c977dbefd71c235a870a3c7362a6044375d76845585847ac2c1cf38e9ac020000006b4830450221008b8f66bb4e736b20380b3e1dd22bc403082111e08874edbd44284061ce242b2e0220613c3567045c83015668044526cda96c2cba549d6493e6738ca432827484dcce4121025169123153863a776ee58542c2727aa91c500d65a85b6a73539305628d6c2f79ffffffffd76447fae3a1c60c9b079195c0712071d9603a949d5cb7301c2512356051b7e8020000006b483045022100a9a118812b33ccc24adb352deec224afdff79ae953a37d5c28ff6d264c485359022042c304a89cea37d684798dbc83fbdc4079bd2e5856473b925b3fb0ab46fc455d412102b986d63b3523c11e0ab14a71ac7df7eacdd273f87a564cee5f64bd38260c29acffffffffd76447fae3a1c60c9b079195c0712071d9603a949d5cb7301c2512356051b7e8030000006a473044022023b9f1e7f8bc6b98395db1762711df812418a4ce5aebe4c391c6db66b65f5dfe022028f69a9d2a874d617664519a88b0acdb4efacd51d4b48c4e6cfa8fa49784eeca412102b986d63b3523c11e0ab14a71ac7df7eacdd273f87a564cee5f64bd38260c29acffffffff040000000000000000cc6a046d657461223148514a3232526e7447334b77397147335441324b70654d354d453747384d4b46724061636539333863666331633237613834383535353834373635643337343436303261333663376133373061383335633237316664626537643937366338613436017c15e5b08fe59687e58fade8818ae5a4a9e58685e5aeb9497b2264617461223a22e4b88de4bc9ae58f88e4b8a2e4ba86e590a7222c2275736572223a2231394c4c7a5269797042775a314b79474b744e427a5478364e665037345a6b656772227d22020000000000001976a914fa7b3a4e585465cacb5f8416cdee0cee20d0f9ca88ac22020000000000001976a914b3e9c908ff43e66b6e9c99061a6424c1acd3385388acad020000000000001976a9145c75591ddb4904623541745b20387e00767745d188ac00000000
```

```
{"txid":"d39c3fa934e091542added95b292621d12319578c0f399ef5f1c394081d0f19d","hash":"d39c3fa934e091542added95b292621d12319578c0f399ef5f1c394081d0f19d","version":1,"size":768,"locktime":0,"vin":[{"txid":"ace938cfc1c27a84855584765d3744602a36c7a370a835c271fdbe7d976c8a46","vout":2,"scriptSig":{"asm":"30450221008b8f66bb4e736b20380b3e1dd22bc403082111e08874edbd44284061ce242b2e0220613c3567045c83015668044526cda96c2cba549d6493e6738ca432827484dcce[ALL|FORKID] 025169123153863a776ee58542c2727aa91c500d65a85b6a73539305628d6c2f79","hex":"4830450221008b8f66bb4e736b20380b3e1dd22bc403082111e08874edbd44284061ce242b2e0220613c3567045c83015668044526cda96c2cba549d6493e6738ca432827484dcce4121025169123153863a776ee58542c2727aa91c500d65a85b6a73539305628d6c2f79"},"sequence":4294967295},{"txid":"e8b751603512251c30b75c9d943a60d9712071c09591079b0cc6a1e3fa4764d7","vout":2,"scriptSig":{"asm":"3045022100a9a118812b33ccc24adb352deec224afdff79ae953a37d5c28ff6d264c485359022042c304a89cea37d684798dbc83fbdc4079bd2e5856473b925b3fb0ab46fc455d[ALL|FORKID] 02b986d63b3523c11e0ab14a71ac7df7eacdd273f87a564cee5f64bd38260c29ac","hex":"483045022100a9a118812b33ccc24adb352deec224afdff79ae953a37d5c28ff6d264c485359022042c304a89cea37d684798dbc83fbdc4079bd2e5856473b925b3fb0ab46fc455d412102b986d63b3523c11e0ab14a71ac7df7eacdd273f87a564cee5f64bd38260c29ac"},"sequence":4294967295},{"txid":"e8b751603512251c30b75c9d943a60d9712071c09591079b0cc6a1e3fa4764d7","vout":3,"scriptSig":{"asm":"3044022023b9f1e7f8bc6b98395db1762711df812418a4ce5aebe4c391c6db66b65f5dfe022028f69a9d2a874d617664519a88b0acdb4efacd51d4b48c4e6cfa8fa49784eeca[ALL|FORKID] 02b986d63b3523c11e0ab14a71ac7df7eacdd273f87a564cee5f64bd38260c29ac","hex":"473044022023b9f1e7f8bc6b98395db1762711df812418a4ce5aebe4c391c6db66b65f5dfe022028f69a9d2a874d617664519a88b0acdb4efacd51d4b48c4e6cfa8fa49784eeca412102b986d63b3523c11e0ab14a71ac7df7eacdd273f87a564cee5f64bd38260c29ac"},"sequence":4294967295}],"vout":[{"value":0,"n":0,"scriptPubKey":{"asm":"OP_RETURN 1635018093 3148514a3232526e7447334b77397147335441324b70654d354d453747384d4b4672 61636539333863666331633237613834383535353834373635643337343436303261333663376133373061383335633237316664626537643937366338613436 124 e5b08fe59687e58fade8818ae5a4a9e58685e5aeb9 7b2264617461223a22e4b88de4bc9ae58f88e4b8a2e4ba86e590a7222c2275736572223a2231394c4c7a5269797042775a314b79474b744e427a5478364e665037345a6b656772227d","hex":"6a046d657461223148514a3232526e7447334b77397147335441324b70654d354d453747384d4b46724061636539333863666331633237613834383535353834373635643337343436303261333663376133373061383335633237316664626537643937366338613436017c15e5b08fe59687e58fade8818ae5a4a9e58685e5aeb9497b2264617461223a22e4b88de4bc9ae58f88e4b8a2e4ba86e590a7222c2275736572223a2231394c4c7a5269797042775a314b79474b744e427a5478364e665037345a6b656772227d","type":"nonstandard"}},{"value":0.00000546,"n":1,"scriptPubKey":{"asm":"OP_DUP OP_HASH160 fa7b3a4e585465cacb5f8416cdee0cee20d0f9ca OP_EQUALVERIFY OP_CHECKSIG","hex":"76a914fa7b3a4e585465cacb5f8416cdee0cee20d0f9ca88ac","reqSigs":1,"type":"pubkeyhash","addresses":["1PqRYyPv9wotWaTsKMeX7rpsf47otVaFg5"]}},{"value":0.00000546,"n":2,"scriptPubKey":{"asm":"OP_DUP OP_HASH160 b3e9c908ff43e66b6e9c99061a6424c1acd33853 OP_EQUALVERIFY OP_CHECKSIG","hex":"76a914b3e9c908ff43e66b6e9c99061a6424c1acd3385388ac","reqSigs":1,"type":"pubkeyhash","addresses":["1HQJ22RntG3Kw9qG3TA2KpeM5ME7G8MKFr"]}},{"value":0.00000685,"n":3,"scriptPubKey":{"asm":"OP_DUP OP_HASH160 5c75591ddb4904623541745b20387e00767745d1 OP_EQUALVERIFY OP_CHECKSIG","hex":"76a9145c75591ddb4904623541745b20387e00767745d188ac","reqSigs":1,"type":"pubkeyhash","addresses":["19Rsk91jS1bmUASDfyKV5LbN4XCGEReoxY"]}}],"hex":"0100000003468a6c977dbefd71c235a870a3c7362a6044375d76845585847ac2c1cf38e9ac020000006b4830450221008b8f66bb4e736b20380b3e1dd22bc403082111e08874edbd44284061ce242b2e0220613c3567045c83015668044526cda96c2cba549d6493e6738ca432827484dcce4121025169123153863a776ee58542c2727aa91c500d65a85b6a73539305628d6c2f79ffffffffd76447fae3a1c60c9b079195c0712071d9603a949d5cb7301c2512356051b7e8020000006b483045022100a9a118812b33ccc24adb352deec224afdff79ae953a37d5c28ff6d264c485359022042c304a89cea37d684798dbc83fbdc4079bd2e5856473b925b3fb0ab46fc455d412102b986d63b3523c11e0ab14a71ac7df7eacdd273f87a564cee5f64bd38260c29acffffffffd76447fae3a1c60c9b079195c0712071d9603a949d5cb7301c2512356051b7e8030000006a473044022023b9f1e7f8bc6b98395db1762711df812418a4ce5aebe4c391c6db66b65f5dfe022028f69a9d2a874d617664519a88b0acdb4efacd51d4b48c4e6cfa8fa49784eeca412102b986d63b3523c11e0ab14a71ac7df7eacdd273f87a564cee5f64bd38260c29acffffffff040000000000000000cc6a046d657461223148514a3232526e7447334b77397147335441324b70654d354d453747384d4b46724061636539333863666331633237613834383535353834373635643337343436303261333663376133373061383335633237316664626537643937366338613436017c15e5b08fe59687e58fade8818ae5a4a9e58685e5aeb9497b2264617461223a22e4b88de4bc9ae58f88e4b8a2e4ba86e590a7222c2275736572223a2231394c4c7a5269797042775a314b79474b744e427a5478364e665037345a6b656772227d22020000000000001976a914fa7b3a4e585465cacb5f8416cdee0cee20d0f9ca88ac22020000000000001976a914b3e9c908ff43e66b6e9c99061a6424c1acd3385388acad020000000000001976a9145c75591ddb4904623541745b20387e00767745d188ac00000000"}
```
